:2000000000300020E9000000350100001D2D00000000000000000000000000000000000027
:200020000000000000000000000000003901000000000000000000003B010000352C0000E9
:200040004101000049010000510100005901000061010000690100007101000079010000B0
:20006000810100008901000091010000990100004D2C0000A9010000B1010000B9010000B9
:20008000C1010000C9010000D1010000D9010000E1010000E9010000F1010000F901000070
:2000A00001020000090200001102000019020000CD2C00002902000031020000E92C000098
:2000C00018DA000080F0FF1F0001000018DA000000E00F400000000080F1FF1F680B00007C
:2000E00000E00F400000000010B572B604F0FAFA0D4B07E0186859681C000C349A6800F02E
:200100009FF82300094A9342F4D306E018681C000834596800F09FF82300054A9342F5D321
:2001200062B606F0EFFDFEE7C0000000D8000000E8000000FEE7FEE7FEE7FEE7FEE7FEE702
:2001400010B5FFF7FCFF10BD10B5FFF7F8FF10BD10B5FFF7F4FF10BD10B5FFF7F0FF10BDAB
:2001600010B5FFF7ECFF10BD10B5FFF7E8FF10BD10B5FFF7E4FF10BD10B5FFF7E0FF10BDCB
:2001800010B503F0ABFC10BD10B503F0B3FC10BD10B5FFF7D4FF10BD10B5FFF7D0FF10BD4D
:2001A00010B503F081FE10BD10B503F08BFE10BD10B506F071FB10BD10B5FFF7C0FF10BDF2
:2001C00010B5FFF7BCFF10BD10B5FFF7B8FF10BD10B5FFF7B4FF10BD10B5FFF7B0FF10BD2B
:2001E00010B5FFF7ACFF10BD10B5FFF7A8FF10BD10B5FFF7A4FF10BD10B5FFF7A0FF10BD4B
:2002000010B5FFF79CFF10BD10B5FFF798FF10BD10B5FFF794FF10BD10B5FFF790FF10BD6A
:2002200010B5FFF78CFF10BD10B5FFF788FF10BD10B5FFF784FF10BD10B5FFF780FF10BD8A
:2002400010B5002304E004680C600433043004319342F8D310BD002303E00022026004332C
:2002600004308B42F9D37047FFFFFFFFFFFFFFFFFFFFFFFFFFFFFFFFFFFFFFFFFFFFFFFF12
:20028000FFFFFFFFFFFFFFFFFFFFFFFFFFFFFFFFFFFFFFFFFFFFFFFFFFFFFFFFFFFFFFFF7E
:2002A000FFFFFFFFFFFFFFFFFFFFFFFFFFFFFFFFFFFFFFFFFFFFFFFFFFFFFFFFFFFFFFFF5E
:2002C000FFFFFFFFFFFFFFFFFFFFFFFFFFFFFFFFFFFFFFFFFFFFFFFFFFFFFFFFFFFFFFFF3E
:2002E000FFFFFFFFFFFFFFFFFFFFFFFFFFFFFFFFFFFFFFFFFFFFFFFFFFFFFFFFFFFFFFFF1E
:20030000FFFFFFFFFFFFFFFFFFFFFFFFFFFFFFFFFFFFFFFFFFFFFFFFFFFFFFFFFFFFFFFFFD
:20032000FFFFFFFFFFFFFFFFFFFFFFFFFFFFFFFFFFFFFFFFFFFFFFFFFFFFFFFFFFFFFFFFDD
:20034000FFFFFFFFFFFFFFFFFFFFFFFFFFFFFFFFFFFFFFFFFFFFFFFFFFFFFFFFFFFFFFFFBD
:20036000FFFFFFFFFFFFFFFFFFFFFFFFFFFFFFFFFFFFFFFFFFFFFFFFFFFFFFFFFFFFFFFF9D
:20038000FFFFFFFFFFFFFFFFFFFFFFFFFFFFFFFFFFFFFFFFFFFFFFFFFFFFFFFFFFFFFFFF7D
:2003A000FFFFFFFFFFFFFFFFFFFFFFFFFFFFFFFFFFFFFFFFFFFFFFFFFFFFFFFFFFFFFFFF5D
:2003C000FFFFFFFFFFFFFFFFFFFFFFFFFFFFFFFFFFFFFFFFFFFFFFFFFFFFFFFFFFFFFFFF3D
:2003E000FFFFFFFFFFFFFFFFFFFFFFFFFFFFFFFFFFFFFFFFFFFFFFFFFFFFFFFFFFFFFFFF1D
:20040000FFFFFFFFFFFFFFFFFFFFFFFFFE3DFFFF10B5141E04D00A00210006F07AF810BD84
:20042000014804F075F9C046287000000FB430B5A3B026AC20CC8022002101A806F06DFCEF
:200440002194074B01AA2100280000F0B7F8010001A800F095F823B030BC08BC04B0184745
:20046000A564000030B585B00D00140000280CD003791C4A137101681160022B1CD0062BAA
:2004800006D0012B04D005B030BD174804F040F901A803F047FF0195124D220001A9286825
:2004A00003F0B0FE2B68DA7808210A43DA70DA7804210A43DA70E6E701A803F063FC01958A
:2004C000084D220001A9286803F07EFB2B689968802212030A439A6099688022D2020A43A9
:2004E0009A60D0E780F1FF1F7870000010B50B4B1B79012B03D0022B08D0002010BD074BE2
:20050000186806F0D1FB4306F9D5F6E7034B186806F0C8FB4302F9D5EFE7C04680F1FF1FA0
:2005200010B50400154B1B79022B16D0062B03D0012B01D0012010BD002A07D00F4B186821
:200540000A00210006F0B5FB0020F4E70B4B18680A00210003F0F8FEEDE7002A06D1074BBE
:2005600018680A00210003F05BFCE4E7034B18680A00210003F040FC0020DCE780F1FF1F21
:2005800010B5002802D005F0D8FF10BD014804F0BFF8C046A070000010B5002805D005F042
:2005A000AEFF002804D1013010BD034804F0B0F801204042F8E7C046CC700000F0B5DE461F
:2005C00057464E464546E0B595B00400059103921F0000230A9300220023069207930023DD
:2005E0009B4698461BE201231D430C0000281AD1611C6378203BDAB2102A12D893009F4ABD
:20060000D3589F4602231D43EFE704231D43ECE708231D43E9E710231D43E6E70025002015
:20062000E4E70120E2E70026002002E02A2B10D00120002813D1611C63781A00303A092A6C
:20064000F4D8B200961972009B18303B1E000C00EFE7059B1A1D05921E680C00E9E7621C8F
:2006600063782E2B4DD00023049306339946631C6278682A4ED06C2A57D023005C1C5A7824
:200680009246642A5DD0692A5BD0662A59D0462A57D0782A55D0582A53D06F2A51D0622A07
:2006A0004FD0702A4DD0752A4BD0632A00D0C1E1059B1A1D05921A7801230AA90398B8473A
:2006C000ACE12A2815D0012100291FD1541C507830256D42AC4684446546092DF1D89A00E1
:2006E000D3185A0082181300303B220001200490EAE7059B1A1D05921B68220029380490ED
:20070000E2E7002304930021AA46DDE7994655461400ACE7A11CA278682A02D0402215436B
:20072000ACE720231D430B00A8E7A11CA2786C2A02D080221543A1E780235B001D430B00BF
:200740009CE75346642B2ED0692B2CD05346582B00D195E0782B00D192E00123994653467C
:200760006F2B06D0622B04D0702B02D0752B00D030E1EB0500D40FE1059B0733072293432D
:200780001A00083205921A685B680692079353466F2B00D10AE1622B00D122E1702B00D13B
:2007A00002E10A2303E1EB0521D5059B0733072293431A00083205921A685B680892099320
:2007C000012300930933012208A90BA805F0C2FE83460BAB5B449846099B002B0FDBAB0783
:2007E00024D501239C46E3442A3399460CE0059B1A1D05921B68DA1708930992E0E70123A8
:200800009C46E3442C3399462B071AD54B46002B04D0DAB201230AA90398B8475B46F31A35
:2008200030220AA90398B847B3468FE76B0705D501239C46E3441F339946E5E70023994632
:20084000E2E7EB070FD45B46F31A20220AA90398B8474B46002B00D178E7DAB201230AA96E
:200860000398B84772E74B46002B00D16EE7DAB201230AA90398B84768E7C046F4700000ED
:200880005346782B4CD001239946EB054BD5059B0733072293431A00083205921A685B68E4
:2008A000069207934B4600931023002206A90BA805F050FE83460BAB5B4498462B073FD5A6
:2008C000EB063AD5012330220AA90398B8474B46002B30D0582201230AA90398B84701238A
:2008E00004935B46F31A30220AA90398B847B346EB0600D433E7049B002B00D02FE7013358
:2009000030220AA90398B8474B46002B42D0582201230AA90398B84702239C46E3441EE74C
:2009200000239946B1E7059B1A1D05921B68069300230793B6E77822CDE700230493D0E77A
:20094000EB0721D410232B40049302D002239C46E3445B46F31A20220AA90398B847049B9F
:20096000002B14D0012330220AA90398B8474B46002B07D0582201230AA90398B847012303
:200980000493B5E77822F6E700230493B0E700230493ADE77822BBE7059B1A1D05921B68E1
:2009A000069300230793F2E6603B00E008234A460092002206A90BA805F0CCFD83460BAB80
:2009C0005B4498462B070ED5331A30220AA90398B847B3464346002B18D023004446984679
:2009E0000EE00223E3E7EB07F4D4331A20220AA90398B847EEE7013C01230AA90398B84701
:200A00002278002AF7D14346A0461C00EB0705D55B46F31A20220AA90398B84701342278E7
:200A2000131E53D0252B00D1F8E501230AA90398B847F3E7732A04D001230AA90398B84737
:200A4000ECE7059B1A1D05921B689A46002BE5D0049B002B17D0CB4601231D4005D15B4658
:200A6000F31A20220AA90398B847049B002B19D153461A78002A20D001239C46E2440AA902
:200A80000398B847F4E7504604F06EFF8346E3E701239C46E2440AA90398B84701235B421D
:200AA0009C46E34453461A78002A02D05B46002BEEDC4B465A469B1A9B46002DAED05B465D
:200AC000F31A20220AA90398B847A7E70A9815B03CBC90469946A246AB46F0BD254B1B794E
:200AE000072B3AD89B00244AD3589F46234B1B789B0734D4214A137802210B4313700120E3
:200B00002CE01E4B1B785B072BD41C4A137804210B431370012021E0184B1B781B0722D455
:200B2000164A137808210B431370012016E0134B1B78DB0619D4114A137810210B43137012
:200B400001200BE00D4B1B789B0610D40B4A137820210B431370012000E00020704700202F
:200B6000FCE70020FAE70020F8E70020F6E70020F4E7C046A4F9FF1F38710000E6FCFF1F30
:200B800010B509282ED88000184B1B589F461848FFF74CFC1748FFF749FC10BD1648FFF7C5
:200BA00045FCF7E71548FFF741FCF3E71448FFF73DFCEFE71348FFF739FCEBE71248FFF7A3
:200BC00035FCE7E71148FFF731FCE3E71048FFF72DFCDFE70F48FFF729FCDBE70E48FFF713
:200BE00025FCD7E70D48FFF721FCD3E758710000307500002C750000387500004075000083
:200C0000487500005075000058750000607500006875000070750000747500007C75000014
:200C200010B5A6B0040004F09FFE23900023249312E0259A2499239B4B4325995B18A15C8F
:200C400001AAD154259B01332593259A239B9A42EFD3249B013324932399432006F0CAF87C
:200C60000130249B984202D900232593EDE70023229320931F9314E02448FFF7D7FB26B0E5
:200C800010BD259B01AAD15C2148FFF7CFFB259B01332593209B013B259A9342F1D80023A3
:200CA0002193209B002B02D0209B432B0CD90123209300232193229B01332293229B232B5B
:200CC000DAD01448FFF7B2FB1F9B5A1C1F92124AD25C2270209BD3182093219B002B04D05A
:200CE000209B9A1A013A2592D4E70023259305E00A48FFF79BFB259B013325932278259B34
:200D00009A42F5D801232193CBE7C0462C75000078740000747400009073000000760000AC
:200D200070B582B0234B0193234C64220021200005F0F3FF08220021204805F0EEFF200088
:200D400005F05AFE002802D0012002B070BD1B4802F0A6F9002801D00120F6E701A9164859
:200D600005F07EFF002823D1124B019A9A4201D00120EAE7104C124A0421200002F02EFB36
:200D8000104E32000121200002F028FB0E4D2A000021200002F022FB3268910A0B48FFF719
:200DA00045FB2A68910A0A48FFF740FB0020CCE70120CAE73CC33CC3C8F9FF1FC0F9FF1FEA
:200DC000B4F9FF1FBCF9FF1FB8F9FF1F707600009476000030B58BB0050072B601212448DB
:200DE00005F05EFD234B1A68234B1C68A41A234B1B68E418224B2100224805F0B3FE002850
:200E000001D100230FE062B601200BB030BD5907C91ACA0018322900D140FF220A40980079
:200E200006A942500133032BF1D9102306AA2100144805F0BCFE002802D062B60120E4E738
:200E400004AB029305AB01930123009306AB102221000C4805F0D1FE002802D062B6012004
:200E6000D3E70021024805F01BFD62B60020CCE7C0F9FF1FB8F9FF1FBCF9FF1FB4F9FF1F11
:200E80006B66656BC8F9FF1F30B585B0104B1968104B1B68C91A104B1B68C918002305E054
:200EA0009A00541824686D4654510133032BF7D9002209E003681B0291006C460C59FF21BB
:200EC00021400B4303600132032AF3D905B030BDBCF9FF1FB8F9FF1FB4F9FF1F10B5104BA5
:200EE0001B78002B03D00E4B1B78072B06D10D4A136880218B437F390B4313600A4C052334
:200F0000236002F0EDFF094803F012F802F0FEFF07232360034A136881218B43136010BD0E
:200F2000E0FCFF1F0000044010E000E000E0074030B589B0334B1A8892B2334B1B889BB28C
:200F40009A4259D0304B1A8892B23049895C1A88013292B21A801A885205520D1A804229BD
:200F6000E8D10021284B1B889BB2284AD45C452C14D0244B1A8892B2234B1B889BB29A42AE
:200F80003DD003AB5C5401311F4A138801339BB2138013885B055B0D1380E3E7002107298B
:200FA0000DD84C0003AD2B5D1B01DAB201342C570F23234013436A4653540131EFE76B466D
:200FC0001B781B066A465278120413436A469278120213436A46D278134303606B461B795B
:200FE00003716B465B7943716B469B7983716B46DB79C371002000E0012009B030BD01206A
:20100000FBE7C046D8FCFF1FDAFCFF1FA4F1FF1FF0B5DE4657464E464546E0B5C9B001902B
:201020000391029200239B46984604E05B46002B00D07FE0B044019B984571D2019B4246F3
:201040009E1A802E00D98026B7B243469D08ADB26B461B89ED18ADB226AA0C231370033344
:20106000537000239370EBB29A46D3702D0A1571F3B2994653713F0A97712F4C072310219B
:20108000200005F02EFB042304AA1021200005F009FB002809D104AB1A7858789B7804A920
:2010A000C9780243134319438B465B46002B3FD126AC0A332370053363700023A3705246D0
:2010C000E27025716371A3714A46E27127726372A372039B434419003604360C320093203B
:2010E00004AB9C46604405F014FE33000B33124D22001021280005F0F4FA042304AA102180
:20110000280005F0CFFA002890D104AB1A7858789B7804A9C9780243134319438B4685E71A
:20112000002049B03CBC90469946A246AB46F0BD0120F6E70120F4E700600640124B1B78D3
:201140005BB2002B1DDB00210F4B1B789B0601D5012359400C4B1B78DB0601D501235940BF
:20116000094B1B785B0701D501235940064B1A785200D2B21A701A78114319701878C0B2DF
:2011800070470121E0E7C046E5FCFF1F70B50500802403E00648FFF749F96408002C05D006
:2011A0002542F7D00348FFF741F9F6E770BDC0462CC9000028C9000010B51D48FFF736F941
:2011C0001C4B1B78DBB2072B03D89B001A4AD3589F461A48FFF72AF9194C2000FFF726F957
:2011E0001848FFF723F9184B1878C0B2FFF7CEFF2000FFF71BF910BD1448FFF717F9EBE72A
:201200001348FFF713F9E7E71248FFF70FF9E3E71148FFF70BF9DFE71048FFF707F9DBE758
:201220000F48FFF703F9D7E70E48FFF7FFF8D3E704760000E0FCFF1F8071000018760000B7
:201240002C75000040760000E6FCFF1F2076000024760000287600002C7600003076000021
:201260003476000038760000F0B58BB0020C030A6C46E07708900D002D0A0C00240C000EEC
:20128000D2B2DBB26E46F67FCFB2EDB2E4B2090E0491039402950197009601001148FFF706
:2012A000C5F808991048FFF7C1F81048FFF7BEF83800FFF765FC0E48FFF7B8F8002D0DD12F
:2012C0000C48FFF7B3F80C48FFF7B0F82000FFF75DFF0A48FFF7AAF80BB0F0BD0848FFF71D
:2012E000A5F8F0E784750000AC750000C4750000D4750000EC750000F07500002C75000077
:20130000E875000010B5094B18685968FFF7ACFF0748FFF78BF8074B1B78DB0704D4054ABF
:20132000137801210B43137010BDC046A4F9FF1F2C750000E6FCFF1F034B1860024B1B686A
:20134000002BFBD17047C04688F1FF1F70B582B001AA002313705370144D1721280002F024
:2013600095F8134CE26D134E324080235B001343E365E36D104A134002221343E3650A20DA
:20138000FFF7DAFF2D69ED0D01231D40E36D0B4A1340E365E36D1E408023DB003343E36543
:2013A0000A20FFF7C9FF280002B070BD00F10F4000D00440FFF8FFFFFCFFFFFEFFFFF0FF10
:2013C000F0B583B00C00160000280DD1002C23D1134A136818218B431360114B1B68182282
:2013E0001A42FAD103B0F0BD0E4F0D4D0E4B01930090002301223900280002F02BFE3978BF
:2014000033000022280002F0B3FE2B6818229343103A13432B60D9E72000FFF78DFFD7E7BE
:201420000080034054D8000000127A0010B500240DE0084B620010198100C8585B185968A8
:201440001A7AFFF7BDFF0A20FFF776FF0134052CEFD910BD9CCD000030B58DB00090019109
:2014600007AB42221A7003325A7400230FE0190069440A78120958000130303A07AC225438
:2014800009780F220A4001335900303A6254072BEDD902A9314B0A0031CB31C218001B68F0
:2014A000136083889380122207A805F038F92C48FEF7BCFF012405E007AB195D2948FEF7D6
:2014C000B5FF0134102CF7D92748FEF7AFFF274C022565606420FFF72FFFA5606420FFF77F
:2014E0002BFF234B1A8892B2224B1B889BB29A422ED0204B1A8892B21F49895C1A880132C4
:2015000092B21A801A885205520D1A805229E8D1174B1A8892B2174B1B889BB29A421AD067
:20152000144B1A8892B21449895C1A88013292B21A801A885205520D1A804F2901D0012015
:2015400007E0122207A90D4802F056FC002000E001200DB030BD0120FBE7C0467873000068
:2015600094770000AC7700002C75000080F00F40D8FCFF1FDAFCFF1FA4F1FF1F00400540BF
:2015800070B5054C1025A560FA20FFF7D5FE65600A20FFF7D1FE70BD80F00F40F0B5D64657
:2015A00000B58AB0029003915F48FEF73FFFFFF7E7FF002409E001270520FFF7BDFE013420
:2015C000E4B2002F20D0632C1ED807AA16231370073B537000239370544D03331021280009
:2015E00005F07FF8042304AA1021280005F05AF80028E0D104AB19785D789A78DF780B00A8
:201600002B4313431F43D7E7632C75D84848FEF70DFF07AD80232B70713B9A466B700026FA
:20162000AE7003232A001021404805F05AF804AC0923220010213D4805F034F821786278F4
:201640003C48FEF7F3FEE178A278A379607900903948FEF7EBFEE179227A3848FEF7E6FE7A
:201660003748FEF7E3FE18232B7053466B70AE7003232A0010212D4805F033F8042322004E
:2016800010212A4805F00EF8002808D104AB19785C789A78DF780B00234313431F43002FD6
:2016A00033D1002203990298FFF7B2FC041E31D107AA192313700A3B5370002393701B4D00
:2016C00003331021280005F00CF8042304AA1021280004F0E7FF002808D104AB19785D7864
:2016E0009A78DF780B002B4313431F43002F16D10F48FEF79BFE03E01248FEF797FE012469
:2017000020000AB004BC9246F0BD0E48FEF78EFE0124F5E70B48FEF789FE0124F0E70948B6
:20172000FEF784FE0124EBE7B876000000600640D4760000DC7600000477000034770000A5
:20174000547700006476000070B5554C2025A5600A20FFF7F1FD65600A20FFF7EDFD514D59
:20176000002300223221280004F07CFF04000120FFF7E2FD39232F223221280004F072FFB3
:201780002418E4B2402300223221280004F06AFF0419E4B20120FFF7CFFDFA2302223221F0
:2017A000280004F05FFF0419E4B200250BE03E4B1B78EA1DD2B232213A4804F053FF04190D
:2017C000E4B20135EDB2052DF1D900250CE0374B1B782A002232D2B23221324804F042FF78
:2017E0000419E4B20135EDB2052DF0D900250BE02A001632D2B2002332212A4804F032FF53
:201800000419E4B20135EDB2052DF1D9254D00230D223221280004F025FF0419E4B2002317
:201820000E223221280004F01DFF0419E4B200230F223221280004F015FF0419E4B200238D
:2018400070223221280004F00DFF0419E4B2002371223221280004F005FF0419E4B20023C9
:2018600072223221280004F0FDFE0419E4B2002373223221280004F0F5FE0419E4B20023C7
:2018800074223221280004F0EDFE0419E4B2002375223221280004F0E5FE0019C0B270BDE1
:2018A00080F00F4000600640DCFCFF1FDDFCFF1F00B583B001AA1B4B9B8A138000211A48A2
:2018C00001F0E4FD19490B68194A1A4080235B0013430B600A20FFF72FFD00220EE0013355
:2018E000DBB2092BFBD9104B01215960002301E00133DBB2092BFBD90132D2B2082A04D88B
:20190000094B012199600023EBE708490B68084A1A4080239B0013430B600A20FFF70CFDCB
:2019200003B000BD7873000040F00F4000A00440FFF8FFFF70B50D001630C4B20B002200D9
:2019400032211A4804F08EFE002801D100232AE01748FEF76BFDFFF7ABFF6420FFF7ECFC6D
:20196000124E300001F00CFE0A20FFF7E5FC002001F0B4FA02000F49300001F061FE0A2018
:20198000FFF7DAFC2B0022003221300004F06AFE002803D00848FEF749FDD7E70748FEF7C7
:2019A00045FDD3E70133632BFCDD70BD00600640B477000028D8000064760000D47600006E
:2019C00010B5094B00221A6009E0074C2068074B1978C0B2FFF7AEFF236801332360024B07
:2019E0001B68052BF1D910BD90F1FF1FDEFCFF1F10B5094B00221A6008E0074C2068C0B21C
:201A00000021FFF797FF236801332360024B1B68052BF2D910BDC04694F1FF1F70B5FA2057
:201A2000FFF78AFC1A4B9B68DBB21A4A1370002417E0A200184BD1581848FEF7F7FC62005B
:201A400012199100164B5B1859681A7A3000FFF7B7FC00212800FFF76DFF1E20FFF76CFC81
:201A600001343A2C12D8FFF769FB062105F0C2F9CDB263001B199A00094BD658002ED8D0A8
:201A8000084B19782800FFF755FFD2E770BDC04610E000E0E5FCFF1F84F0FF1FB476000079
:201AA000E4CD0000DEFCFF1FF8B5DE46574680B52E492F48FFF772FD041E05D0012420004B
:201AC0000CBC92469B46F8BD00210220FFF732FF00210320FFF72EFF2648FEF7A7FCFFF703
:201AE0004FFDC820FFF728FC2348FEF79FFC2348FEF79CFC224F234EBB59E025AB43C022DA
:201B00001343BB516420FFF717FC1F4B9A4602239B4653465A465A60FA204000FFF70CFC3B
:201B200053465A469A606420FFF706FC04239B4653465A465A60FA204000FFF7FDFB53461A
:201B40005A469A60FA204000FFF7F6FBBB59AB43BB510948FEF76AFC00210120FFF7EAFED0
:201B600000210420FFF7E6FEA9E7C046CC7700005C51000068770000D476000080770000A0
:201B8000007004400410000080F00F4070B506000D0003000B431CD000240BE0FFF710FF35
:201BA0000CE0FA20FFF7C8FB002D0FD1FA20FFF7C3FB0134042C0CDC002DEFD1002EF0D063
:201BC0003222FA210348FFF7FBFBEDE7FFF710FFECE770BD280A000010B504001E4B187892
:201BE000C0B2FFF7F7F8002806D11B4B1A781B4B9A71002C0FD110BD174B1878C0B2FFF7F3
:201C0000E9F80028F1D000210120FFF7BFFF1448FEF70CFCE9E7134B802252011A600F4BB4
:201C200018685968FFF718FC002809D10D4A802380214901D150BFF34F8FBFF36F8FDAE750
:201C4000064B18685968FFF707FC0028EED00648FEF7ECFBEAE7C046E6FCFF1FACF9FF1F4F
:201C60005476000000E100E03CCC000000B583B0134B00221A70134B01321A7001A8FFF725
:201C800003F9019B5A1C10D0DBB20F4A137013787F2213407F2B0FD00B4A137801218B4315
:201CA0001370FFF789FA03B000BD074B00221A700020FFF791FFF4E7014B783A1A70F0E7DA
:201CC000E0FCFF1FDFFCFF1FE6FCFF1F10B50400474B00221A600FE0464B00221A7010BD21
:201CE000434B1868C0B204F035FD0620FFF724FB3F4A1368043313603F4B1A783C4B1B682F
:201D00009A4227DB3B4B1B78002BE5D1062CECD8A3003A4AD3589F46354B1868C0B204F058
:201D200034FDE2E7324B1868C0B204F049FDDCE72F4B1868C0B204F05EFDD6E72C4B1868CE
:201D4000C0B204F073FDD0E7294B1868C0B204F088FDCAE72A4B2B4A9A60FFF7BFF8254B65
:201D60001B78002B04D1244B1A78214B1A6013E0204B00221A70B2E71E4B00221A70AEE79C
:201D80001B4B1868C0B204F0E5FC0620FFF7D4FA174A1368043B1360154B1B68002B9EDB17
:201DA000144B1B78002BE7D1062CEED8A300164AD3589F460E4B1868C0B204F0E6FCE4E757
:201DC0000B4B1868C0B204F0FBFCDEE7084B1868C0B204F010FDD8E7054B1868C0B204F0D0
:201DE00025FDD2E7024B1868C0B204F03AFDCCE7A0F1FF1FE3FCFF1FDEFCFF1FA071000036
:201E000000000440E7030000BC71000070B5664B1B78DBB2072B03D89B00644AD3589F460B
:201E2000634B1B78DBB2062B2DD89B00614AD3589F460120FFF74AFF5D4B02221A702AE088
:201E40000220FFF743FF5A4B03221A7023E00320FFF73CFF564B04221A701CE00420FFF716
:201E600035FF534B05221A7015E00520FFF72EFF4F4B06221A700EE00620FFF727FF4C4B8F
:201E800001221A7007E04A4B01221A7003E04A4B187804F05FFC70BD474B187804F075FC61
:201EA000F9E7454B187804F08BFCF4E7424B187804F0A1FCEFE7404B187804F0B7FCEAE7B5
:201EC0003D4B187804F0CDFCE5E73C4B00221A6010E03A4C2168C9B20120FFF72BFD2168FC
:201EE000C9B20420FFF726FD0220FFF725FA236801332360304B1A78304B1B689A42E8DA08
:201F0000AF256D002800FFF717FAFFF771FD2A4C21780020FFF70EFD21780320FFF70AFD04
:201F20002800FFF709FAFFF763FD21780120FFF701FD21780420FFF7FDFC2800FFF7FCF9BD
:201F4000FFF756FD21780220FFF7F4FC21780520FFF7F0FC2800FFF7EFF9FFF749FD21781C
:201F60000120FFF7E7FC21780420FFF7E3FC2800FFF7E2F92278114B1A6010E00F4C216898
:201F8000C9B20120FFF7D6FC2168C9B20420FFF7D1FC0220FFF7D0F92368013B2360074B75
:201FA0001B68002BEADA76E7E0FCFF1FD8710000DFFCFF1FF8710000DEFCFF1F9CF1FF1F0A
:201FC00010B5CE4B1B78DBB2072B03D89B00CC4AD3589F46CB4B1B78002B16D1CA48FEF773
:201FE000A7FF0028FAD0C74B00221A70C74B1B78DB0700D409E2C54B1B785B08C44A1360BE
:20200000C44B00221A60002112E0BF48FEF790FF0028E3D1FFF776F9E0E7BD4C22680120BB
:2020200010404118C9B2521022600133B94A1360B84B1B68042BF0DD052906D88900B64BD6
:202040005B589F46AD4B01221A70FFF7DFFEFFF7EDF9FFF7B1F8FA204000FFF76DF9FFF749
:20206000C7FC0120FFF7B8FDCFE1A44B02221A70EBE7A24B03221A70E7E7A04B04221A70AD
:20208000E3E79E4B05221A70DFE79C4B06221A70DBE79C4B1B78002B28D19B48FEF748FFFE
:2020A0000028FAD0974B00221A70974B5B79012B00D0AAE1FEF712FD002800D1A5E1FA24C2
:2020C00064002000FFF738F98C4B02221A70FFF79DFEFFF7ABF9FFF76FF82000FFF72CF90D
:2020E000FFF786FC0120FFF777FD8EE18648FEF71FFF0028D1D1FFF705F9FFF787FEFA203A
:202100004000FFF719F9FFF773FCC6E77D4B1B78002B28D17C48FEF70BFF0028FAD0794B6D
:2021200000221A70784B5B79012B00D06DE1FEF7D5FC002800D168E1FA2464002000FFF772
:20214000FBF86E4B03221A70FFF760FEFFF76EF9FFF732F82000FFF7EFF8FFF749FC0120FA
:20216000FFF73AFD51E16848FEF7E2FE0028D1D1FFF7C8F8FFF74AFEFA204000FFF7DCF899
:20218000FFF736FCC6E75F4B1B78002B28D15E48FEF7CEFE0028FAD05A4B00221A705A4BBA
:2021A0005B79012B00D030E1FEF798FC002800D12BE1FA2464002000FFF7BEF84F4B0422A2
:2021C0001A70FFF723FEFFF731F9FEF7F5FF2000FFF7B2F8FFF70CFC0120FFF7FDFC14E192
:2021E0004948FEF7A5FE0028D1D1FFF78BF8FFF70DFEFA204000FFF79FF8FFF7F9FBC6E7F4
:20220000404B1B78002B28D13F48FEF791FE0028FAD03C4B00221A703B4B5B79012B00D0F6
:20222000F3E0FEF75BFC002800D1EEE0FA2464002000FFF781F8314B05221A70FFF7E6FDA1
:20224000FFF7F4F8FEF7B8FF2000FFF775F8FFF7CFFB0120FFF7C0FCD7E02B48FEF768FE55
:202260000028D1D1FFF74EF8FFF7D0FDFA204000FFF762F8FFF7BCFBC6E7224B1B78002B66
:202280002BD12148FEF754FE0028FAD01D4B00221A701D4B5B79012B00D0B6E0FEF71EFCAF
:2022A000002800D1B1E0FA2464002000FFF744F8124B06221A70FFF7A9FDFFF7B7F8FEF77B
:2022C0007BFF2000FFF738F8FFF792FB0120FFF783FC124B00221A7097E00B48FEF728FE37
:2022E0000028CED1FFF70EF8FFF790FDFA204000FFF722F8FFF77CFBC3E7C046E0FCFF1F17
:2023000014720000E3FCFF1FA4F9FF1FE6FCFF1F98F1FF1F8CF1FF1F34720000E7FCFF1F96
:202320003A4B1B78002B0FD13948FEF701FE0028FAD0364B00221A70354B1B79092B18D8AE
:202340009B00344AD3589F463148FEF7F1FD0028EAD1FEF7D7FFFFF759FDFA204000FEF7AF
:20236000EBFFFFF745FBDFE72B4A137801210B431370294B1B783F2213403F2B45D1274AD8
:20238000137840210B431370254B07221A70FFF72FFBFA204000FEF7CFFFFFF73FFBFEF7FB
:2023A0000BFF0120FFF718FC1E48FEF7C5FF2CE0194A137802210B431370DAE7164A13782F
:2023C00004210B431370D4E7134A137808210B431370CEE7104A137810210B431370C8E71F
:2023E0000D4A137820210B431370C2E7FFF70EFD0D4B0E4A9A600648FEF79AFD0028FAD0C9
:20240000024B00221A70FEF769FD10BDE3FCFF1FA4F9FF1F4C720000E7FCFF1FE6FCFF1F24
:20242000E0FCFF1FDC05000000000440DB05000070B588B0BB48FDF7F9FFBB48FDF7F6FF65
:20244000002400E01C0004F050F8C0B203AB1855631C182815D00A2803D00D2801D0132BA6
:20246000F0D903AD00232B55280003F07DFA2B783F3BDAB2362A00D98CE19300AB4AD358AC
:202480009F46AB48FDF7D2FF08B070BD012803D0A848FDF7CBFFD0E7A74B18685968FEF731
:2024A000E3FECAE701280CD0A248FDF7BFFFC4E7A248FDF7BBFF01340BE0A14B00221A70EE
:2024C00000E000249F48FEF733FD002810D0002CEED09B4B00221A70994B1B78002BECD109
:2024E000FEF734FF0028F7D19148FDF79FFFCBE7FEF708FF944B1B78002B03D0924B1B78CB
:20250000072B08D1FFF75CFAFA204000FEF714FFFFF76EFA0AE0FFF779FCF5E7FFF750FA33
:20252000FA204000FEF708FFFFF762FA8548FEF7FFFC002800D080E7FEF7E4FE824B1B78A0
:20254000002BEBD0804B1B78072BE7D0FFF75EFCE6E7012803D07748FDF768FF6DE77B4804
:20256000FDF764FF002400E01C0003F0BEFFC0B203AB1855631C0A2803D00D2801D0132BDF
:20258000F2D903A80023035503F0EEF9012800D053E703AB1B78592B02D0792B00D04CE7FF
:2025A0006B4C002323700120FFF716FB6948FDF73DFF2078C0B2FEF7E9FD6748FDF736FFE8
:2025C0003BE7BFF34F8F654B654ADA60BFF34F8FC046FDE75C4B1B78072B09D102280BD8E3
:2025E000604903A803F09EF903A8FEF719FB24E75048FDF71BFF20E70E206844FEF710FBB7
:202600001BE7042803D9504B1B78072B03D04948FDF70CFF11E700230193029302AB01AA51
:2026200051490E20684404F0A9FB322202990198FEF7C6FE01E7112803D9434B1B78072BFD
:2026400011D03C48FDF7F2FEF7E6013383420CD203AAD15C0A00613AD2B2192AF5D8203911
:2026600003AAD154F1E70023F0E7102200211620684403F0EDF8060003AB00229A72103285
:2026800000210E20684403F0E3F80500320001003648FDF7CBFE3648FDF7C8FE002400E0C2
:2026A0001C0003F022FFC0B203AB1855631C0A2803D00D2801D0132BF2D903A800230355A4
:2026C00003F052F9012800D0B7E603AB1B78592B02D0792B00D0B0E6174B1D60320E1A71DB
:2026E000320C5A71320A9A71DE7128005968FEF7B3FE00280BD0104B18685968FEF7ACFE6E
:20270000002800D199E61B48FDF790FE95E61A48FDF78CFE91E6012830D00648FDF786FE9B
:202720008BE6C04600CC000030C9000074720000DCCB00007C740000ACF9FF1F8074000029
:20274000E3FCFF1FA4F9FF1FE0FCFF1F9C740000E6FCFF1FC47400002C75000000ED00E011
:202760000400FA05D4740000DC740000E4740000F47400003CCC0000247500000748FDF71A
:2027800055FE074B1B78072B00D056E60548FDF74DFE52E60448FDF749FE4EE694CA0000E6
:2027A000E0FCFF1F30CB00007C740000F8B504F0A4FA04F08CFA04F09CFADD4B1C68022023
:2027C00000F08CFB030001222100DA48FDF720FED94A802380214901D150BFF34F8FBFF3F3
:2027E0006F8FD64B2A221A70D549D64A8B58E02083438B50D44B1868FA21890004F0FAFAF7
:202800000138D24B98420DD8D14A5060D148036A1B021B0AC02109060B4303620023936057
:2028200007331360FA208000FEF786FDFFF740F8C948FDF7FBFDC948FDF7F8FDC848FDF7B0
:20284000F5FDC848FDF7F2FDBD4DC74C2959C74FEA5983267601AB59C548FDF7E7FD2C590D
:20286000EB595C40AB595C40C24BEB585C402100C148FDF7DBFD002000F030FB0100BF48B3
:20288000FDF7D4FDBE48FDF7D1FDFEF749FA002810D1BC48FDF7CAFDBB4D2878C0B2FEF79C
:2028A0006FF92B78DBB2092B00D9C9E09B00B74AD3589F46B648FDF7B9FDEAE7B54B08227B
:2028C0001A70B54B023A1A70B44BBA321A70FFF7CDF9B348FDF7AAFDB248FDF7A7FDB24855
:2028E000FDF7A4FDFEF7A2FDB048FDF79FFDFA20FEF722FDAE48FDF799FDFEF725FF002838
:2029000000D0A7E0FFF75CF8A848FDF78FFD8A4B802252011A60A748FDF788FDFFF7C4F848
:20292000002800D0A6E0A44B1C60974A12781A7100225A71A14909789971DA71200059682A
:20294000FEF78AFD002800D0A1E0FEF7FFFC9C4B187000210020FEF7EDFF00210520FEF7C6
:20296000E9FF9848FDF762FD974B1B78072B00D0CBE06420FEF7E0FC9448FDF757FDFFF7AB
:202980004DF8FA204000FEF7D7FCBEE0814B08221A70814B02321A70804BB6321A7096E76E
:2029A0007C4B08221A707C4B013A1A707B4BB9321A708CE7774B08221A70774B013A1A7065
:2029C000764BB9321A7082E7724B08221A70724B063A1A70714BBE321A7078E76D4B0822E9
:2029E0001A706D4B013A1A706C4BB9321A706EE7684B08221A70684B023A1A70674BBA32D1
:202A00001A7064E7634B08221A70634B023A1A70624BBA321A705AE75E4B08221A705E4BA1
:202A2000023A1A705D4BBA321A7050E7594B08221A70594B023A1A70584BBA321A7046E773
:202A4000544B08221A70544B023A1A70534BBA321A703CE76420FEF76FFCFEF775FE002813
:202A600000D154E700210120FFF790F85848FDF7DDFC4CE76420FEF75FFCFFF715F80028EB
:202A800000D150E701210020FFF780F84BE74A4B18685968FEF7E0FC002800D155E74D48DB
:202AA000FDF7C4FC51E74C48FDF7C0FC4B4B1B68002B3AD0FFF7BCFC484B00221A60484B28
:202AC0001B78DBB23E4A13703F4B1B78072B00D08AE0444B1B78002B0BD03B4B1B78072BCF
:202AE00007D0394B1B78002B00D193E03D4B00221A70114C80256D018023E550BFF34F8F6D
:202B0000BFF36F8FFFF75CFA2560FEF71FFC344B18701B78002BD2D0294B1B78002BC2D0F9
:202B20002E4B1B68002BCAD0BDE703F0DEFCC1E758D8000000C0064000E100E000E007409D
:202B4000007004400410000070F1FF1FFFFFFF0010E000E000ED00E0C0CC00005CCC0000E0
:202B6000BCCB000038C90000581000005C1000005CC900002410000078C9000084C9000012
:202B80009CC90000C8C900007CF1FF1F50730000BCC90000DCFCFF1FDDFCFF1FDEFCFF1F87
:202BA000DCC90000F0C90000F8C90000D476000010CA000030CA0000ACF9FF1FE6FCFF1F15
:202BC000E4FCFF1F9CCB0000E0FCFF1F2C750000647600003CCC000050CA000080F0FF1F6B
:202BE000E2FCFF1FE1FCFF1F0C48FDF71FFC03F078FC0B49CB6D0B4A1A4090231B031343B2
:202C0000CB65094B094A9A60FEF768F90848FDF70DFC5EE7FFF7FAF868E7C04678CA00007C
:202C200000D00440FFFFF0FF000004408713000088CA0000044B1B68002B03D0024A1368CC
:202C4000013B13607047C04688F1FF1F00B583B01A4804F027F883021FD5184BDB68DBB268
:202C60006A46D371164B1B8801335B055B0D154A128892B2934210D0114B1A8892B269467D
:202C800007310978C9B2104881541A88013292B21A801A885205520D1A80084804F002F8F0
:202CA000030301D403B000BD0448C368DBB26A46D3718021090301F07BF8F3E70040054061
:202CC000D8FCFF1FDAFCFF1FA4F1FF1F044B01221A70044A136880210B4313607047C04677
:202CE000E1FCFF1F0000044010B5094800F0F0FB002805D180210904064800F0F7FB10BDFB
:202D0000054B01221A708021014800F0EFFBF6E780F00F4000F10F40E3FCFF1F042071463E
:202D2000084202D0EFF3098001E0EFF3088081690A88044B9A4200D0FEE70231816120210F
:202D400001607047ABBE00000A4B1B789B0708D4084B9A79920803231340012B01D00020F6
:202D600006E0044B5B78012213409B00024A98587047C04600400640A8D10000054B984218
:202D800004D9054B984203D8012000E0002070470220FCE79798000000127A0010B5074BA2
:202DA0001B785BB2002B01DB002010BD044B18680028FAD1034801F0ABFCC046005006403E
:202DC0002CFAFF1F24D1000010B5104B1B689B0C03241C40022C11D0032C03D0002C05D0DB
:202DE000002401E0FA24A400200010BDFFF7D6FF80231B029842F7D11C00F5E7044B1C6827
:202E0000002CF1D1034801F083FCC0460070044030FAFF1FF8D000000749084B4268CA50D8
:202E200002780B68064803409204C0200003024013430B607047C0460070044044100000D3
:202E4000FFFFF3FF70B5064A147A640807231C40157E1D40FFF778FF6419E04070BDC04660
:202E600000400640074B1B7E5BB2002B08DB054B9B799B089B0701D0002070470248FCE748
:202E80000148FAE700400640006CDC0210B50F4B9A79920803231340012B07D0002B03D0F2
:202EA000022B0CD0002000E0094810BDFFF74CFF064B1A7A520807231340D840F5E7054BAA
:202EC00018680028F1D1044801F022FC00400640006CDC022CFAFF1F50D1000070B5132898
:202EE0002DD88000174B1B589F46FA20800070BDFFF7CCFF144A154BD158090F013103F0E7
:202F000079FFF4E7FFF7C2FF0F4D104C2959090F013103F06FFF2B591B0C07211940013164
:202F200003F068FFE3E7FFF74FFFE0E7FFF736FFDDE7FFF787FFDAE7FFF794FFD7E70020CF
:202F4000D5E7C046A8D00000007004404410000010B5002831D0274B9A79920803231340A9
:202F6000012B2DD0C3785B000E221340214A13724379DB01DBB20479072121400B4313761D
:202F8000537801218B43847821400B43537003789B01DBB241780B43137053785B0702D5D6
:202FA0000378022B21D00178124B9A799208032313409942F7D1002010BD0F4801F0A8FB01
:202FC0000378012BCED10B4B5B78827801210B409342C7D0074A13783E310B401370054B46
:202FE0009B799B089B07FAD1BCE7024B9B799B07FBD5D8E7004006407CD1000070B504007C
:203000000068FFF7BBFE2379124A11780F25A9430B43137013785F210B40A1790B431370E6
:203020000D4A537801210B4000012F31084018436379184350706379002B04D0054B1B7848
:203040005BB2002B00DB70BD034B9B799B07FBD5F9E7C046005006400040064010B5002471
:2030600001E00134E4B2012C0AD8A300054A99580029F6D0044A9A58044818589047F0E719
:2030800010BDC04634FAFF1F3CFAFF1F44FAFF1F10B51C22014903F03CFE10BDB0D1000099
:2030A00010B500280AD04368002B04D04068FFF7EFFF002010BD024B4360F7E70420F9E754
:2030C0004CFAFF1F0378002B0AD04378002B1DD00F4AD16880231B020B43D360002070478F
:2030E0000B4AD3680B490B40D3604378002B06D0074AD36808490B40D3600020EFE7D16828
:203100008023DB010B43D3600020E8E77820E6E7003000F0FF7FFFFFFFBFFFFF10B5446892
:203120000134802101230A22C9000148A04710BD0C3000F010B50B4C70232370836C013312
:20314000200098472378DBB29A0607D4DA0607D4DB0701D4002010BD6920FCE76720FAE79A
:203160006820F8E700000240034B984201D1002070476B20FCE7C0466B66656B10B50C22CD
:20318000014903F0C6FD10BDCCD1000010B5041E10D00023C3630364836C002B07D0A06C51
:2031A000FFF7ECFF200003F083FB002010BD024B8364F4E70420F9E78CFAFF1FF0B5C64648
:2031C00000B5060017001C003423C35C03F08DFB051E27D12000FFF7C7FF051E22D1346B64
:2031E000336998463F19013F1900380003F002FE002907D04146380003F0FCFD471C4346E2
:203200005F43013FBC420DD82202120A90231B051343064A13603000FFF78CFF051E01D117
:203220004444EFE7280004BC9046F0BD04000240F0B5CE4600B582B0019015001E003923BF
:203240000700C45C002A33D02300320003F04DFB00282ED13F6B0EE03A02120AC023DB04B1
:203260001343164A13600198FFF764FF002820D13F19361B4D46002E1BD0280003F050FB5F
:203280000F4B18602B1D9946042CE5D0082CEAD1180003F045FB0B4B186008239946A94451
:2032A0003A02120AE023DB041343044A1360DAE7042002B004BC9146F0BDC0460400024096
:2032C000080002400C000240F0B5CE4600B582B0019014001E0008AB1B789946372305006F
:2032E000C75C002E2DD03B0003F0FFFA002829D12D6B002C26D02A02120A80239B0413439D
:20330000124A13604B461A06114B1343114A1360300003F005FB104B18600198FFF70AFF1F
:20332000002803D1E41BF619ED19E2E7099B002B00D01D600A9B002B04D000230A9A1360BA
:2033400000E0042002B004BC9146F0BD04000240FFFFFF00080002400C000240002818D088
:20336000002918D00D4B9B78DBB203221A40022A07D03F229343802B07D0094B0B6000202A
:203380007047084B0B600020FAE7074B0B600020F6E70420F4E70420F2E7C04600000240B9
:2033A000A53CC35A3CC33CC3A55AA55A30B5084D084C2C592240DA40D3B20F2B06D0FF23CD
:2033C0001A405200044BD05A800230BD4843FCE7007004404C10000060D2000010B51400D0
:2033E000002835D0002A35D0212935D889001B4B5B589F460369136000202AE0C3681360EC
:20340000002026E0C3684169180003F0F3FC206000201EE04369136000201AE08368136082
:20342000002016E00379DB06DB0F1360002010E0C369136000200CE0036A1360002008E019
:20344000C36B1360002004E0036C1360002000E0042010BD0420FCE76A20FAE7D8D10000D9
:2034600010B50023042B06D89A0006495258824201D00133F6E7042B01D8180010BD0248E7
:2034800001F046F9E4D2000080D2000010B5002A0ED01378002B0ED05378002B11D1013387
:2034A0008B408360436901228A401343436110BD064801F02DF9436901228A409343436186
:2034C000F5E701238B404360ECE7C046C0D2000010B5FFF7C5FFFF2318408000024BC25833
:2034E000A023D05810BDC046F8D2000010B50C00FFF7B6FFFF2318408000024BC258A023A4
:20350000D45010BDF8D20000CB0603D4CB0705D4002070471023C3700148FAE70148F8E70E
:203520004F0400004E04000010B5C378DB0605D5064B1B689847BFF34F8F10BD83789B067F
:20354000F6D4034B1B689847F5E7C046D4FAFF1FD8FAFF1F10B50023012B06D89A00064958
:203560005258824201D00133F6E7012B01D8180010BD024801F0CCF8A8D300000CD30000B8
:2035800010B583787F2213408370FFF7E3FF8000064BC3581A0C06498C46624411681B043B
:2035A0001B0C012098408143116010BDB0D3000000700440F0B5C64600B584B080460F0043
:2035C00000920023019303930293012676421EE0C01B0DE00134E4B23F2C12D86300174AEE
:2035E000995AA940009803F005FCB842F0D2381A8642EFD9019B02930394002802D00600FD
:20360000E8E73000019D0135EBB201930600019B022B04D8002E02D0019D0024DCE76B46C5
:203620001E7AB601F6B23F22039F1740374343465F7004B004BC9046F0BDC046B8D30000DF
:20364000F8B504000D00160000293FD0002A3DD0FFF780FF80001F4BC3581A0C1E498C464E
:20366000624411681B041B0C0120984003000B431360002323706370A370FF22E270637145
:203680005021AF3AA271E371A2787F273A40A270A2790A43A271A3790B43A3711223E3709C
:2036A000320069682000FFF785FFA3791F406B78DB01DBB23B430F229343297A0A401343DE
:2036C000A3712B78DB01DBB2A370F8BD034801F01FF8C046B0D30000007004404CD3000053
:2036E0008378382293438370064BC278920602D5013B002BF9D1002B01D0002070478A2004
:20370000C000FBE7FFFF000070B506000C00150003F0AAFA830617D4B37830221343B370BC
:203720000C4B327BD20702D4013B002BF9D1002B0CD06400E4B2012D04D000231C4334717B
:20374000002070BD0123F9E70348FAE78A20C000F7E7C046FFFF00004C04000070B5060025
:203760000C00150003F080FA830602D5B3789B0625D57378DBB23F221A407270B278142121
:203780000A43B2707370062201E0C0461A00531EDBB2002AF9D10C4B327BD20702D4013BCD
:2037A000002BF9D1002B0CD06400E4B2012D04D000231C433471002070BD0123F9E703484E
:2037C000FAE78A20C000F7E7FFFF00004C04000070B5254DC47864B2002C02DB013D002D15
:2037E000F8D1002D38D00224C470847810252C438470002512E0002A32D0C278D2B20221B9
:20380000C170D10602D51021C170184DD20701D5002C11D12200002D11D13100541E002A47
:203820000DD04E1C0A7802710F4AC1788907E2D4013A002AF9D1DEE70122C2700C4D002DA5
:2038400001D15B0702D50A4B9D4207D10223C370FFF746FF050001E08A25ED00280070BDE7
:203860008A25ED00FAE7C046FFFF00004F0400004E040000F0B583B004000E001D006B466A
:20388000D91D00230B700B780133DBB20B702549E3785BB2002B02DB01390029F8D10029A2
:2038A00039D00223E370A37818218B43A370012A05D02379DBB26946CB71002010E0A37813
:2038C00008210B43A370F4E7002B27D00223E370002F10D0012F19D0237933703A00013611
:2038E000571E002A1CD00F4BE2789207ECD4013B002BF9D1E8E76B0704D5A3781022134342
:20390000A370E7E72000FFF7EBFEE3E7A37808221343A370E0E78A20C00001E08A20C000D3
:2039200003B0F0BDFFFF000070B504000D1E41D04A79817950200143A171A3790343A371CB
:203940001223E3706149E3785BB2002B02DB01390029F8D1002900D1A9E02B7B002B02D073
:203960006B79012B29D02B68D90728D5012A00D1A1E000262B68DB072FD4002E00D098E03D
:20398000524BE278920702D4013B002BF9D1002B00D192E0E178C9B22000FFF7B5FD061E62
:2039A0001BD04B4B984200D083E02000FFF798FE484E7EE0484800F0ABFE0022D3E79B0732
:2039C00005D529792000FFF7C9FE0600D2E729792000FFF799FE0600CCE72B7B002B1FD106
:2039E0006B79002B02D16B69002B58D16B79012B5FD16B69002B5CD029696A692B6820003A
:203A0000FFF738FF060054E0002B59D0E178C9B22000FFF779FD061E15D12B7B002B19D0C7
:203A20000223E3702B7B013BDBB22B73DB00AA68DA40D3B22371254BE2789207E4D4013B8A
:203A4000002BF9D1E0E7224B984232D12000FFF747FE2EE06B79012BC2D10133E37029792B
:203A600001222000FFF77AFE061E22D1174B02E0013B002B02D0E2789207F9D5002B22D023
:203A8000E178C9B22000FFF73FFD061EA8D0104B98420ED12000FFF723FE0E4E09E0296942
:203AA0006A692B682000FFF793FE06009EE78A26F600300070BD0426FBE78A26F600F8E7DA
:203AC0008A26F600F5E78A26F600F2E7FFFF00004E0400005104000084D3000010B5034BD6
:203AE00019680348FFF720FD10BDC046CCFAFF1F0060064010B5034B59680348FFF714FD64
:203B000010BDC046CCFAFF1F0070064010B50023002B03D0002B06D1180010BD034A90424C
:203B2000F8D00133F4E7024800F0F2FD0000044038D4000070B505000C1E28D0FFF7E6FF0E
:203B4000144A136801210B4313602278520002231340E278920003310A401343A078C000AD
:203B6000082202401343607800013022024013432B60A279D20078231340227992001140DC
:203B80000B43617903220A4013436B6070BD024800F0BEFD3880044078D4000010B500231B
:203BA000012B06D89A0006495258824201D00133F6E7012B01D8180010BD024800F0A8FDF9
:203BC000ACD50000C4D40000F0B5DE4657464646C0B584B082468B460192002908D00F688D
:203BE000002F08D0B84604250023029303930BE0584800F08DFD584800F08AFD464502D8C8
:203C0000B046029503940135202D1AD829007943019803F0EFF884B2002C00D10134290022
:203C20006143019803F0E6F8C61B611C6943019803F0E0F8381AB042E0D20134A4B2060081
:203C4000DCE76421380003F0D5F843001818404500D27DE05046FFF7A1FF80003F4BC358AC
:203C60001A0C3F498C46624411681B041B0C0120984003000B43136053469B68394A134030
:203C8000524693601368029A043A032A02D8802292021343344A1A40029B013B1B06F821C6
:203CA00049050B4013435B0B5B03039AD204D20C13435246136013682C4A13405246136050
:203CC00092682B4B1A405B461C795B7A1B02E021C9000B4023435946087A80000421014070
:203CE0000B431343002C01D010221343524693601368204A1A405B46DB795B038021890153
:203D00000B401343524613605B469B79002B1DD0194A53465B6813435246536093685A462F
:203D2000927A002A02D08022120313435A46D27A002A02D08022D20213435246936000200F
:203D400004B01CBC90469A46A346F0BD0B4AE0E70B48F5E708D5000030D50000B4D50000D5
:203D600000700440FFFFF3FFFFFFFFE0FFFFFFDFE8F8FFFFFFDFFFFF00C01FE000C01FC0CE
:203D80002105000010B500280CD0E1235B0203600023037143718371C371037243728372DE
:203DA000C37210BD014800F0B3FCC0469CD4000010B50C00426852005208CB0FDB0713436A
:203DC000094A1A40094B0B401343094A1340C02212020A401343436002F064FF044201D1F5
:203DE000002010BD0348FCE7FFFFE0BF00001F40FF3FFFFF1A05000010B5002909D107483A
:203E000000F086FC43681B02FCD50B78C36022000131541E002AF5D110BDC04688D500000B
:203E200070B504000D1E18D0561E002A32D063689B022AD4200002F035FF030310D44303CA
:203E400015D483031AD4C303F1D5802149022000FFF7AEFFA420C00008E00F4800F058FCC3
:203E6000802109032000FFF7A3FF0C4870BD8021C9022000FFF79CFF0948F7E780218902E4
:203E80002000FFF795FF0748F0E7E3682B7032000135C9E70020E9E764D500001D05000009
:203EA0001E0500001F05000010B5034B1968034B1B680348984710BDDCFAFF1FE4FAFF1F6F
:203EC0000040054010B5034B5968034B1B680348984710BDDCFAFF1FE4FAFF1F005005403C
:203EE00000B583B001A8074B1B880380EFF3108272B6054B1A60BFF36F8FFFF7E3F803B01F
:203F000000BDC046BCD50000E8FAFF1F00B583B001A8002303704370FFF7D4F8034B1B68E0
:203F200083F31088BFF36F8F03B000BDE8FAFF1F437807229343022213434370084A13699E
:203F400004210B4313614378BFF34F8F30BFBFF36F8F43781B0701D4002070470148FCE7DB
:203F600000ED00E03C0F000010B50023022B06D89A0006495258824201D00133F6E7022BD0
:203F800001D8180010BD024800F0C2FB08D70000C0D5000070B505000C1E4DD0FFF7E4FFAE
:203FA0008000294BC3581A0C28498C46624411681B041B0C0120984003000B4313602278CD
:203FC000072313402B60227952012023134062785202802189000A401343A279920480210B
:203FE000C9020A401343227A1204802149020A401343E2795204802189020A401343627ABF
:20400000D204802109030A401343E278D205802109040A401343A2781206F02109050A4063
:2040200013438422AB506379002B08D18422AB58C0218B43AB5070BD054800F069FBAB5885
:20404000C0210B43AB50F6E714D7000000700440F4D50000F0B5C64600B505000C1E904686
:20406000079813D0069A002A13D04246002A13D0002814D0296807220A40D040002B11D050
:20408000012B1DD0012004BC9046F0BD334800F03FFB334800F03CFB324800F039FB324844
:2040A00000F036FB2B68202293432B60069902F0A1FE471E2D4B9F424CD8AF60002633E04F
:2040C0002B68202213432B60069B590002F092FE0700EFE7002123780133DB00EB185A6841
:2040E0003C2082435A602278531CDB00EB185B683C201842F7D10132D200AA185368607863
:20410000800003432020034353602278531CDB00EB185B683C201842F7D00132D200AA18B2
:20412000916003340136F6B2464511D2A078642812D80028CED07843642102F05BFE81B2F8
:204140000004000C8742C6D8B9B2013189B2C2E7002098E7012096E7012094E718D60000A0
:2041600040D6000068D6000090D60000FFFF000070B504000D00144A90421ED0134A904204
:204180001DD0134A904216D001225242914218DAA26896B21204120C53431800642102F0F6
:2041A00026FE80B2864201D80136B0B20135ED006419A06070BD0222E8E70622E6E7022296
:2041C000E4E7044800F0A4FA008003400090034000A00340B8D6000010B50023022B06D840
:2041E0009A0006495258824201D00133F6E7022B01D8180010BD024800F08AFAF8D700000E
:2042000044D70000F8B5CE46474680B5070089461600002900D170E00B689846002B00D17D
:204220006EE01901100002F0E5FD85B2002D00D1013576004146300002F0DCFD84B269012F
:2042400088B2241AA4B26118300002F0D3FD804559D24346C61A6421404602F0CBFD4300C4
:204260001818B04252D33800FFF7B6FF8000284BC3581A0C27498C46624411681B041B0C39
:204280000120984003000B431360FB780C229343FB703B7813329343290A0B433B70EDB2E6
:2042A0007D70BB7A93431F2004401C43BC72BB78083A93431A004B465B799B0004210B4021
:2042C00013434A461279002A02D0134310221343BB70FB78DBB24A469279002A01D00822A8
:2042E00013434A46D279002A01D004221343FB7000200CBC90469946F8BD074800F008FA18
:20430000064800F005FA43461E1AA4E70448F0E704D80000007004407CD70000A0D7000097
:20432000F503000010B5002808D0E1235B0203600023037143718371C37110BD014800F083
:20434000E7F9C04620D7000070B504000D1E13D0561E002A18D023799B0610D4200002F090
:20436000A3FC030712D4430712D4830712D4C307F1D5FD2080000AE0074800F0C9F9E3799A
:204380002B7032000135E3E7002000E0034870BD0348FCE70348FAE7D4D70000F1030000DF
:2043A000F2030000F303000010B5154C154B164AE2501648FEF722FE154B802212021A60F7
:2043C0001448FEF7C5FD1448FEF726FD134B144A1A60144BE25814491140C02212050A4393
:2043E000E250E25811491140C02292040A43E250E258E0218A4320390A43E25010BDC046FC
:2044000000700440441000000000031018D800002CFAFF1F10D8000020D8000070F1FF1FEE
:2044200000127A0004100000FFFFFFF3FFFFFFFC10B50220FEF752FD020002490248FFF73B
:20444000E1FE10BD58D8000000C0064010B50B4C0B4A0C492000FFF7B7FB8021890320009F
:2044600002F012FC084BC32189005A58FF2082435A50802252011A6010BDC0460040054075
:2044800000127A003CD8000000E100E010B50020FEF724FD020002490248FFF7D1F810BD9D
:2044A00028D8000000600640024B802212061A607047C04600E100E010B582B0084C0949BA
:2044C0002000FFF767FD084B0193084B00930023012207492000FFF7BDFD02B010BDC046AA
:2044E0000080034048D8000000127A00280A000054D8000010B5084C08492000FFF71AFB5A
:20450000236880229343403A13432360044B802252051A6010BDC0460000044034D8000060
:2045200000E100E0F0B587B0614A13688027BF003B43136013688024E4002343136011680C
:2045400080231B010B431360116880235B010B431360116880239B010B43136005AA012554
:2045600015700026567001215248FEF78FFF04AA1570567002214F48FEF788FF03AA15702A
:20458000567004214B48FEF781FF02AA1570567005214848FEF77AFF01AA167056700621EF
:2045A0004448FEF773FF6B461E705E706A4607214048FEF76BFF404A1068404B1840E02156
:2045C000C900084310605068184038435060906C18409064D06C1840D06490681840384341
:2045E0009060106D184008431065D06818400143D16011691940116131490A681A403A4329
:204600000A604A681A403A434A602E4A506818408021490008435060906818400843906005
:20462000D6681E40A020C0003043D0601069184008431061506918400843506190691840D0
:20464000084390619069204E304028439061D06918400143D161D0691C4901409020000352
:204660000843D061D169314002200143D16118490A691A4022430A61CA691A40CA61154A66
:204680001168194011601168134801400D431560916D194021439165D16D0B401C43D4652B
:2046A0000E490F4A8B58072083438B5007B0F0BD3880044080F00F4000900440FFF8FFFFB7
:2046C00000A0044000B00440FCFFFFFEFFFFF0FF00C0044000D00440FEFFFFFE0070044057
:2046E0001010000010B5084B9B781B0704D5064A937808210B439370044A88235B01002129
:20470000D15002F0FEFA10BD00D007400070044070B505000E4C0F48210002F018FB2100D4
:20472000280002F014FB0C4A111DCB6F013BCB67002B07DB936F591C91670A221A7002F000
:20474000E7FA70BD21000A2000F028F8F7E7C04664FBFF1F64D80000ECFAFF1F202310B547
:204760000400C2689A43E2608369826A93420CD000F0BAF8E368074A1A4010231343E360FF
:20478000A36AA3612369E3622360E268024B1340E36010BDEFCFFFFFBFBFFFFFF8B5CA68A3
:2047A0004E4B050013400C00CB60930602D50800FFF7D4FFA268E668531C0FDAB3050DD447
:2047C00002235B429B1AA36090235B021E432368E6605A1C22601D70E8B20AE0404A324018
:2047E000022A07D00023A36080331E43E66001204042F8BD80213B4B090233408B420AD191
:204800000021200000F048F9E3689B0602D52000FFF7A4FFE6689023F0225B0233431201B1
:20482000E360164210D1606902F0E7FB002820D073051ED523002433236123600123E361F3
:2048400092235B023343E36090210901226826690B4224D0E16A8A4200D91100891B17D1EB
:20486000731CE3622360E3695A1EA26023633570B2E780277F00380000F0FEF89423E26812
:204880005B0233431A4320612060E761E260DBE72200300000F056F80028E1D0A7E7511C37
:2048A000E8B221601070E26A21688A4200D91100E269891B22635B0504D40A2802D08A4256
:2048C00000DD89E70023E6622660A3602200300000F038F8002800D17EE788E7FFFFF7FF64
:2048E0008A10000010A0000070B5040005690168C26A124BC0680340E36082230340022B22
:2049000002D00120404270BD80235B021840FAD0914200D211008D4208D10020E268084BB8
:20492000E56213402560A060E360ECE7491B2200280000F007F80028EFD0E2E7FFFFF7FF01
:20494000FFFFFEFFF7B5D56801900E0014005769EB0205D5102338001D4302F04BFBA06135
:20496000104B1D420FD0A169380002F051FB002806DA80230120E26840421343E3600FE0FE
:20498000094B1D40E56032000199380002F046FB43005B08F61AA3699E19A6610028E8D189
:2049A000FEBDC04610000200EFFFFDFFF7B50027304EC51C3468AD08B84214D02900EB1CA9
:2049C0009C460A310191002C0FD10C3001F0D8F8431C08D080239B05036045608460002F8A
:2049E00046D130601EE00020FEBD80222368520593423AD1A7686368002F0BD080213A68AC
:204A000049058A4206D17A6803339B186360BB68A360EFE7AB4207DB9C4505DB80239B0548
:204A2000236020000C30DFE7019A934210D9802220008021920522600C30AA005B1B821806
:204A40004905033B6560A260116053609760CBE7002F0AD19B00C01A01F092F8431CC2D04B
:204A600080239B0523606560DBE72700A468AAE7B860D7E7D0FCFF1F10B5FFF797FF041EF2
:204A800005D11722034902F0C9FA02F041F9200010BDC04679D80000F7B5394BC568040035
:204AA0000E0000921D4201D1022741E043691800019302F0A2FA071EF6D1009B012B28D04A
:204AC000022B2BD0002BEFD1002EEDDBAB0404D52368E26A9A4200D2E362A069B0420EDC96
:204AE000E26A2368934200D21300226919180092891AB14203DB216B4218B2422EDC20233C
:204B00001D430023A662A36063601E4B1D40E5600EE0200000F038F83618D5E7019802F076
:204B200069FAE268002805DA802301271343E3603800FEBDE16A2368994200D90B00A169CB
:204B40005B1821695B1A920603D5A26A934200DA1300834200DA0300F618B5E7361AAA0758
:204B600001D5711AA160EA0703D5009A9B1AF31A6360009B9E19202326609D43C5E7C0463E
:204B800003001000BFCFF7FFC268930705D1212201200E4B40421A607047202313401203C9
:204BA0000AD5002B02D0806A0138F5E70368826900699B18181AF7E7002B01D0806AEBE7E0
:204BC0000368826900699B18181AE5E7D4FCFF1F37B5184C18492200002000F0F1FF802301
:204BE00080225B00D2000021200000F077FE134C134D22002900012000F0E2FF80238022FF
:204C00005B00D2000021200000F068FE0D4B1B680193022B0DDD0C4C29002200022000F095
:204C2000CFFF802380225B00D2000021200000F055FE37BDECFAFF1F91D8000028FBFF1F0E
:204C400093D8000060D8000064FBFF1F0A4B1B1880331B789A0605D53038884201DB0120BD
:204C6000404270471A0701D55738F6E73738DB06F3D401204042F0E795D80000F0B50300F2
:204C80001500012485B02D4E0190039118785A1C002837D031188031097821422BD130289E
:204CA00030D15878202104008C439A1C2100582C23D12F0048398F432AD10D009878DA1C30
:204CC00000263400009202962900FFF7BFFF002820DA002F02D0009B013B0193039B019AAC
:204CE0001A60029B002B26D022220120144B40421A6005B0F0BD1300C8E70127002DDFD193
:204D00000835DDE70027BD42DAD12F000A25D7E70127D5E76E436C438619330C1C19094BFA
:204D2000B6B29C4201D901230293009B0127187801330093C8E720043043DAE795D800000C
:204D4000D4FCFF1FFFFF0000F0B501270400160087B0059100937F427B1C03936368013B2B
:204D60006360002B63DB23685A1C22601D780122654B5B1980331B78134256D104956B1CC6
:204D800000D1B0E00C9B002B6CDDB3061AD52B2D04D02D2D16D180239B001E43BB1C029377
:204DA0006368013B6360002B46DB23685A1C22601D780C9B013B0193002B57D0029B0393C9
:204DC000019B0C93302D4DD180270C9B7F00013B0193039B3743013302936368013B6360D5
:204DE000002B2EDB23685A1C22601D78019B002B31D020232A009A43582A2CD11022009B09
:204E000093432BD10C9B023B0193039B023302936368013B6360002B18DB23685A1C226075
:204E20001D7837001023009318E0039F94E7200000F0E2FD05009AE7200000F0DDFD050067
:204E4000B7E7200000F0D8FD0500CFE7200000F0D3FD0500E5E7009B002B4CD0029B0026BE
:204E600004931BE0039B02930C9B0193009B3700002BF3D10A23D6E780235B001F43009B8C
:204E80005E43049B8619013304936368013B6360002B2BDB23685A1C22601D78029A019B1D
:204EA0009B18049A9B1A002B05DD00992800FFF7CDFE0028E0DA2100280000F081FDFB05C4
:204EC0001DD5FB070FD40423059A3B401268111DB80602D5B80500D57642059801601268BB
:204EE000002B0AD01680049807B0F0BD200000F083FD0500D2E7082395E71660F3E70223AD
:204F00005B420493EFE7C04695D800000023F0B505009FB01392069307930E784B1C04939C
:204F2000002E00D17FE0252E41D0B64C6B68A219803211780122013B114225D004990B0095
:204F40001B780491E31880331B7801311342F6D101266B68013B6B60002B11DB2B685A1C79
:204F60002A601878231880331B78334204D1290000F026FD0499D0E7069B01330693E8E77F
:204F8000280000F039FDEDE76B60002B0ADB2B685A1C2A601C78B44200D047E1069B01332A
:204FA0000693E7E7280000F027FD0400F3E700224B7803922A2B03D18B1C049301230393D5
:204FC000904B00249C460A260827049A61462020049B013304931378C918803109780142C1
:204FE00024D10399090700D4874C6C2B2AD102210398049B08431B78039052180492672B77
:2050000000DDA4E0652B00DB62E1582B01D100F0EFFB27DC452B00D15AE1472B00D157E158
:20502000252B00D1F6E007981FB0F0BD774A9442F9DC7443E418303CF5D4039B049A3B4350
:205040000393C3E74C2B07D11221049B1B780398023208430390D1E7682BD0D1049B0421FF
:205060001B78F4E7632B00D1F4E000DD25E15B2BD9D1049B1A785E2A00D1BCE31900002614
:20508000013116AB02931F2300209C46012716901790189019901A901B901C901D90002AA6
:2050A000C1D0634650111A403B0093401A00029B8000C3581A43029BC2500A784B1C04930F
:2050C0005D2A00D09CE3002E08D0002316A9980042580133D2434250082BF8D101260027BB
:2050E000039B1E40BE4203D1139B1A1D13921F686B68013B6B60002B00DA83E32B685A1C81
:205100002A60187800230293029B9C4217D0431C15D01F22C31713401B185B111EAA9B00A7
:20512000D3183B4A203B024004D52021013A49420A4301321B681341DB0700D569E32900FF
:2051400000F03EFC002E00D0BFE23E70BDE2702B00D12AE30ADC6E2B00D113E300DD21E399
:20516000692B00D05FE700940023A8E0752B00D13AE3782B00D13BE3732B00D053E701235A
:2051800001275B420293029B013302936B68013B6B60002B00DA0EE32B685A1C2A6018785C
:2051A000184B1B1880331E783E40ECD1431C44D0039B1F4003D1139B1A1D13921E68029BE4
:2051C0001C19029B9C4209D0431C07D001220D4B1B1880331B78134200D1F0E2290000F00B
:2051E000EFFB002F00D137700123039A1A4013005A425341079AD318029A07939446069B83
:205200006344CDE695D80000FFFFFF7FCCCCCC0C1F0000806B68013B6B60002B15DB2B68B4
:205220005A1C2A601C78252C00D1B7E62900200000F0C6FB631C00D0F5E6079B002B00D05A
:20524000F1E601235B420793EDE6280000F0D4FB0400E8E7039B01261B0700D43400002779
:20526000039B33401E00BB4203D1139B1A1D13921F68002C00D1D6E6069B1C19069B0133B9
:2052800006936B68013B6B60002B10DB2B685A1C2A601878002E01D138700137069B9C4203
:2052A000ECD173425E41079B9B19079362E6280000F0A2FB431CEDD1BFE70A23009420222A
:2052C00003990A4313A92800FFF73EFD0290FCE1012701267F427B1C02936B68013B6B604B
:2052E000002B00DAD0E02B685A1C2A601878CF4B1B1880331B78334200D0C3E0431C9CD090
:20530000039B0593002C17D02B2800D1C0E02D2800D0C4E08023039A9B001A430592BB1C11
:2053200002936B68013B6B60002B00DAB3E02B685A1C2A601878013CBD4B2600BD4C0A9332
:205340000B94002300240C930D9400231C000893002E00D0A6E0290000F032FB0A20032135
:20536000604301F044FD261A320012900C980D9900F0A0FC0E900F91089801F0EAFD320086
:2053800000F098FC0A900B91002C00DB60E10026A94F0022A94B3000390000F033FD02004C
:2053A0000B000020A64900F093FE0022A34B00F0EBFD089009916442002200230C920D930F
:2053C00001231C4238D0089A099B3000390000F05DFF02000B00109011910E980F9900F0BB
:2053E00011FD0C9A0D9B0E900F911098119900F009FD0A9A0B9B0C900D910898099900F015
:2054000001FD0C9A0D9B00F041FF0A9A0B9B0C900D913000390000F0F5FC00220B000A9279
:205420000B9300F055FE0C9A0D9B00F02FFF0C900D91012C00D111E132003B00300039001F
:2054400000F024FF089A099B00F020FF02000B000898099900F0D6FC3200089009913B0034
:205460003000390000F0CEFC00260B0032000F0000F02EFE089A099B00F008FF6410089032
:2054800009919DE7029F26E7280000F0B5FA2EE7039B059343E7280000F0AEFA4BE7039B74
:2054A000059349E72E2813D14027059B3B420FD11F43029B013302936B68013B6B60002BB9
:2054C0003EDB2B685A1C2A601878013E05973FE780272022554B7F001B1880331B781342B9
:2054E00032D0059B059A1F4340231A400592554B089A30389A4208DC0A235343059A1B18B6
:205500000893531E9A41A41AD3E701F022FD0A9A0B9B00F077FC02000B000C980D9900F028
:20552000B5FE00220C900D910A980B99464B00F02BFD059A0A900B9153425A41A418B8E70D
:20554000280000F059FAC0E7059B20221F4003009343452B00D0FEE6002F00D1FBE63B4B94
:20556000059A1A406B680592013B6B60002B1FDB2B685A1C2A6018782B2821D02D281BD0F5
:20558000029F731E0A930137002602970A9B029AFB189B1A002B06DD2022244B1B18803397
:2055A0001B7813421ED1059B1B0635D5A41BD2E6280000F021FADFE78023059A1A430592A3
:2055C0006B68029F013B02376B60002B06DB2B685A1C2A601878B31E0A93D5E7280000F0A6
:2055E0000BFAF8E78022059B5200134305930A235E43029B3038013302936B688619013BFB
:205600006B60002B04DB2B685A1C2A601878BDE7280000F0F1F9B9E7A4199CE600220023C8
:20562000002608920993054FC6E6C04695D800009A9999999999B93F9999C93F000014407E
:205640000000F03F9F860100000024407FFEFFFF002CE3D1002300240C930D940C9A0D9B61
:205660000E980F9900F012FE0A9A0B9B00F00EFE15AA00F0DFFA159A129B944663441C0015
:205680001593802306000F00DB009C4225DD6B4B50CB059B9B0502D580231B06F6182222F1
:2056A000674B1A60059BDB0500D4BCE40127059B1F409B0732D5002F07D1139B1A1D139269
:2056C0001968220033000A604B60029B002B00DB8AE5013300D0A6E4AFE55A4B9C420BDA43
:2056E0000022002300F096FE002805D12222544B04001A600600D5E7059B22003000390095
:205700009B0506D500F0D6FA80231B060400CE18C8E700F0CFFA04000E00C3E716AA20009C
:20572000310000F087FA169B7E331693002B13DC002200232000310000F06CFE00281CD19D
:20574000222200203E4B1A60002FBED1139B1A1D13921B681860B8E7FE2B0EDD00230022A7
:205760002000310000F06EFE374B002800D1374B2221334A18681160E6E72000310000F0C0
:2057800019FEE1E7139B03991A1D13921B68490704D56A46128B1A80FFF7ECFB069A1A607A
:2057A000FFF7E8FB0094082389E50623039A00949A430A3386E5280000F01EF9F0E4002FD2
:2057C00001D130700136029B013302936B68013B6B60002B04DB2B685A1C2A601878F0E4DF
:2057E000280000F009F9ECE400940A23039A69E50094102363E5049B0126991C5A7840E493
:2058000004994CE4280000F0F7F8431C00D079E413E5002E01D138700137029B01330293EA
:205820006B68013B6B60002B04DB2B685A1C2A60187869E4280000F0DFF865E4207000004C
:20584000D4FCFF1F03FCFFFF78F1FF1F74F1FF1FF0B50F00060001001E4B85B09C461B6895
:2058600001930B784C1C002B2CD001251A48C01880300078284023D105002B2B05D08025C9
:20588000AD002D2B01D00C0005006146002320000B6003A9FFF7F2F9002F04D0039BA342B9
:2058A00000D01E003E600B4B1A68222A06D0019A1A60002D02D0002807DB404205B0F0BD60
:2058C0002100CEE70C001D00DFE7222201201A60F3E7C046D4FCFF1F95D80000F0B5C56817
:2058E0000124AE0710D08026B600B24207D08026F600B2420AD080267600B24204D1084F21
:205900005E1E0124BE4204D92000F0BD010023002431154301610160C361C5600024F3E761
:20592000FEFFFF0003000B4330B59B0715D00023CA5CC2540133002AFAD130BD04C304313D
:205940000A68074C141994432C42F7D0D1B2197001330029F1D01212F8E70300014DEFE7F5
:20596000FFFEFEFE80808080032110B5421C084218D1114C0368114959189943214219D0F9
:20598000DCB2411C002C0BD0FF242402811C234206D0FF2109040B40591E8B41C318D91C69
:2059A000881A04E0431C0078002801D1981A10BD1800DCE70430DDE780808080FFFEFEFE45
:2059C00010B5431C12D08223CA681B0313400ED18C1DE077074C2240812424032243CA608A
:2059E0008A688B608A634A684B604A6310BD01204042FBE7BFEFF7FFF8B5C36804001A03E4
:205A000009D5426B06344260826B8260554A1340C360E07FF8BD9B0601D5FEF79FFEE368D3
:205A2000514A1A40012A0ED0002262604F4A134207D04F4A134040221343E3600120404235
:205A4000E8E78022F8E74B4A13420CD180256D002800FFF711F88023E2681B011343206116
:205A60002060E561E3606168E3684A1C0CDA02225242521A6260802252011343E3602368BE
:205A80005A1C22601878C5E76769DA0604D5DB033ED52000FEF728FF8023E2685B0113437D
:205AA000E360E56926692368D1034BD5E16A8B4200D91900891B6D1A33D12000FEF714FFE6
:205AC000E569E3695E1B23699E191023E26831009A431300E26038002A0001F06DF90028AF
:205AE00006DA8023E268DB0113434000E36040082D1A7319E362E3692363E368002D26D183
:205B00001D4A6560134040221343E360266095E7A169380001F07CFA0028BDDA8023E268B4
:205B20008AE7164B1A42CCD1A3693800C91801F06FFAE2688023002800DA7DE79B021343D5
:205B4000E360BEE7A2699B1BD318A361BDE7721C226080229202013D13436560E36030787F
:205B600058E7C046FFFFF7FFC960000040400000BFAFFFFF000F0100FFEFFFFF10000200C9
:205B800070B50C4D2B68002B01D10B4B2B600323C41C2E689C433419200000F007F9002816
:205BA00002D12C60300070BD0C220126034B76421A60F7E7CCFCFF1FE8FCFF1FD4FCFF1FA0
:205BC000F7B50D0001901000140000F09FF82B78722B1FD0772B04D0612B26D10823144A1F
:205BE00001E0042302220220691C032784460426012508782B2810D0622813D0E260019A91
:205C000062611B0704D5022200212000FEF744FF2000FEBD00230122E5E760463A430343D3
:205C20000131E6E732432B43FAE70024F0E7C04602800000F7B500230092002204000D008A
:205C400000F0E8FB002806D0002300200021009A136003B0F0BD6B00134A5B0D2000290029
:205C60009F18002B18D122002B031B0B802636031E4001965B00D60F3343019E1B031B0B76
:205C80005200002E01D1013FF0E71B032C0D1B0B24051C4321001000009B044A1F60044BAE
:205CA0000B401A431100D4E702FCFFFF0000E03FFFFF0F8070B500231600002204000D0037
:205CC00000F0A8FB002802D00020002170BD6A00520D0A4B921920009A4206DD2222084B8A
:205CE0001A60084B18685968F0E7002AECDD064B520552082B4013431900E7E7FE0700001D
:205D0000D4FCFF1F20700000FFFF0F80F0B5C46889B00500A30722D0230718D44769066998
:205D200000F022F8380001F062F9230502D5300000F0F7FF0B4BA40DA4059C4207D1202218
:205D4000296A684601F067F9684601F047F83C220021280000F0E1FF002009B0F0BD0120B5
:205D60004042FAE7000080AD73B5002813D000F027F80500280076BD30006043094BC018F2
:205D800000F01EF8002801D001256D420134019BA342F1DCEEE7044B04001B680500019368
:205DA0003C26F4E7ECFAFF1F60D80000034B0200181E02D000209A4240417047E8000020D6
:205DC00070B50326C36804001E4011D09B0611D5856AFEF7C3FCE268094B20001340E36089
:205DE000FEF782FD0022060029002000FEF754FE300070BD036882699D180369ED1AEAE7CB
:205E0000FFCFFFFFF0B514001A004A40D20F8BB00600D2074800400D039200D186E0514D5F
:205E2000A84200D182E05A00520D00D17EE0AA4200D17BE0DF02630D1F43802380251B0629
:205E40001F4300230903090B6D030D438218069228003A00190001F088F8E3021A00079326
:205E60000023049005912800190001F07EF80023009101930099019A049B059C5B18544169
:205E80000893099400233200049019000798059301F06BF80D00019B32000400190038000D
:205EA00001F063F82A00019B019F80185941049A059B80185941089A099B0E00B6185F41CC
:205EC0002949069A294BA408204351189F420DD81300274AC40F94466344320019003B00A0
:205EE00092197B41144326001F0040000023C20FB6185F41802233001206904203D1012346
:205F000032009A4313001B4A914206D81800039A0C053A43A1180BB0F0BD002903DB039A41
:205F2000154B1A43039200200399F4E7134A4900914211D858009042F5D9114A5B00934293
:205F40000DD8490D002000290AD05B0D08D00A4B039A1A431100DEE7094A9142EDD000207B
:205F60000849D8E7FF07000001FCFFFFFFFF0F0000FCFFFFFD0700000000F07FFFFFDFFFBA
:205F80000000E0FF0000F87FF7B51C004D004C406D0D019462D0474FBD425FD05C00640D38
:205FA0005CD0BC425AD02F1BC902440D214380242406A446C4026046DB020843510D0B43CB
:205FC000614605000B43D202834202D81BD1A24219D9394950087F18D9070843352259083E
:205FE00000235B00A94206D801D1A04203D80126241A8D41334324196D41561E212A0CD19B
:2060000000933200EDE7E9078C4666466008690806430D0034002949DCE7321EE1D1A942F4
:2060200008D801D1A04205D801335A425A4100998A180092019A2249D20FD2078F4205D849
:206040003F05009CBA181119180005E0002F01DB1C4B1A430020110003B0F0BD1A4C480059
:20606000A04202D85A00A24202D900201749F3E70B435B005B0D5B0501D11449E4E7019BEA
:20608000DF0FFF07430D5B053900002BDCD0530D5B0503D10B4A3A431100D5E7A24204D061
:2060A000084B00203B431900D6E79042DDD00020D2E7C046FF070000FD030000FE030000B4
:2060C000FD0700000000F07F0000E0FF0000F87FF7B50400060010001A001F000D004A4061
:2060E00008D580252D0602005B19200000F0CEF803B0F0BD8B4203D8A0420AD38B4208D132
:2061000080231B06D3183200594006000D0010007B405A4A5A492F0D1C0D3C1B3A408A42DE
:2061200000D1A1E0944200D199E0802229031B035203090B1B0B114313431F2C4FD81A003C
:20614000E240891A0200E24001922022141BA340019A1A43B21A9642B64103007642891B7D
:20616000A34005D0013A501C444260415B42091AC0204003014250D14900D40F0C43520085
:20618000DB0F134322001A43023F111E57D0620B1CD0620C04D1190F24010C431B01043F12
:2061A000E20C04D1990FA4000C439B00023F220D04D1D90F64000C435B00013FFA0AED0F6B
:2061C000AA4209D13F053919180091E7190E24020C431B02083FDAE70020E90788E7320061
:2061E000352C1AD81D00203CE540721B20252D1BAB4005009642B641E5407642891B2B43E6
:20620000000608D0FF200343013A501C444260415B42091A01E0002BF6D1C80209D4013FF3
:206220007C050ED0D00F490001435200D80F02435B00144C3F050C40002B05DBE1191000B5
:2062400056E73905200053E70132514251416418802109068B42F1D101239A43EEE7211E41
:20626000F0D02900300043E72B030020002B01D005493DE7002CF4D10349E3E7FFF7FFFF24
:20628000FF070000FFFFEFFF0000F87FF7B51F000C000091050001901E004F4007D5802668
:2062A00036069D192B00FFF713FF03B0F0BD8B4203D91C001500009E019A3A483A4B210D11
:2062C0000840984265D0330DCB1A83425BD08020240336034003240B360B044306431F2BC5
:2062E00026D83000D840202724181000D840FB1A9E400643AD19B542B6419A407642A4196E
:206300001600A3022ED501356B426B41E418002E01D102239D4362080B059B18234A58003D
:2063200090421BD86D08E4072C4319002000BCE7352BE6D83000203BD8402D18854280415F
:20634000404224182020C01A86401000D84012060643002AD5D0FF231E43D2E74B1C002084
:206360001905A2E70139002E09DA01356B426B41E41880231B069E4201D101239D430B0516
:206380001919280091E7002B09D1E40FE10718008BE723030020002B01D0054985E72100A4
:2063A000EFE7C046FFF7FFFFFF070000FFFFDFFF0000F87F30B50300CC0F124849004A08FC
:2063C000114D1018E407A84210D8C82000061018D900C0005B0F0343C80FC01880231B06A8
:2063E000994201D101239843204302E0002801DA201C30BD054B994202D8FF20C005F3E7BD
:206400000348F6E70000F0C7FFFFDF0F0000E0FF0000C07FF0B50F00490005001E0014005F
:20642000084304D15B0013430130002B07D00020B74204D1A54202D1014B8B424041F0BD69
:206440000000E0FFF7B50E004C001943009114491D008C460099019200290CDB0021644518
:2064600007D801319E4204D800219E4201D1904249410800FEBD00216445FAD85B006345BE
:20648000F7D80131AE42F4D301D19042F1D9002120438842EDD1134359425941E9E7C04669
:2064A0000000E0FFF0B5C64600B506000C0090461F00002506E023684246F254236801336D
:2064C00023600135BD4209DA21684B1C7F2BF2D93000FAF755F800232360ECE704BC90463F
:2064E000F0BD10B500F024F810BD10B582B06B46DC1D2000FAF750F8207802B010BD10B57B
:2065000000220121FAF70CF8002800D110BD0120FCE710B582B014001A0000906B46197188
:20652000002321006846F9F79DFF002002B010BD10B5F9F7DBFF002010BD10B50C1E07D0FC
:20654000002805D00122F9F7EBFF002800D00024200010BDF0B5D646474680B585B00193EC
:206560000CAB1B789A46431C984600230370002A37D00C684D6823002B4301D0002614E048
:20658000303343700126300005B00CBC90469A46F0BD30220023121BAB4141460A700136E8
:2065A00001239C46E044029C039D23002B43EAD0019BDF171A003B002000290000F080FC8C
:2065C0000200029003910B000198390000F0CDFC241A8D41002DDCDB3022002312196B41C1
:2065E000DBE70C684D6823002B4301D000260FE0303343700126C6E730220023A4185D4180
:2066000043461C70013601239C46E044029C039D23002B43B7D0019BDF171A003B002000A7
:20662000290000F020FC0200029003910B000198390000F09AFC241A8D41002D02D1DBD1E2
:20664000092CD9D95346002B09D041220023A4185D410A225242D317A4185D41D0E7612298
:206660000023F4E7F0B589B000900E0017006A46D51DD37102AC18220021200000F04DFB42
:20668000267100236371A7600122227325616261029321000098FDF747F9002800D00120C9
:2066A00009B0F0BDF0B587B004000F0016001D0018220021684600F030FB6B461F710123C9
:2066C0006A46537100230293137304960595009369462000FDF728F9002800D0012007B08D
:2066E000F0BDF0B587B004000F0016001D0018220021684600F011FB6B461F7100236A46B2
:2067000053710293137304960595009369462000FDF70AF9002800D0012007B0F0BDF8B5E3
:2067200000AFD31DDB08DB006C46E31A9D466C46002303E0CD5CC65C665501339342F9D3D7
:20674000002303E0E55CC554CB5401339342F9D3BD46F8BD10B5040000210020FBF7EAF84F
:2067600000210120FBF7E6F800210220FBF7E2F821000320FBF7DEF821000420FBF7DAF8E3
:2067800021000520FBF7D6F810BD10B5040001000020FBF7CFF821000120FBF7CBF821006B
:2067A0000220FBF7C7F800210320FBF7C3F821000420FBF7BFF800210520FBF7BBF810BD6F
:2067C00010B5040001000020FBF7B4F821000120FBF7B0F821000220FBF7ACF82100032038
:2067E000FBF7A8F800210420FBF7A4F800210520FBF7A0F810BD10B5040001000020FBF7BB
:2068000099F821000120FBF795F821000220FBF791F800210320FBF78DF800210420FBF776
:2068200089F800210520FBF785F810BD10B5040001000020FBF77EF821000120FBF77AF85D
:2068400021000220FBF776F821000320FBF772F821000420FBF76EF821000520FBF76AF8BE
:2068600010BD10B5040001000020FBF763F821000120FBF75FF800210220FBF75BF82100E0
:206880000320FBF757F821000420FBF753F800210520FBF74FF810BD10B5FCF7DFFB10BD67
:2068A00010B5002901D0002010BDFCF737FCFAE7002818D04C22835C01210B4302210B43E7
:2068C000835460233C3AC25202330332C252002343653E3208218154013A83545233B032A4
:2068E000C252002070470420FCE7002810D0013B19420FD11A420FD183688B420ED88918AC
:20690000C2689B18994201D8002004E0662002E0042000E0652070476520FCE76620FAE76B
:2069200010B50200830702D00023002007E0006807E01178DC00A140084301320133032B95
